{
  "contractName": "uSTD",
  "abi": [
    {
      "inputs": [],
      "stateMutability": "nonpayable",
      "type": "constructor"
    },
    {
      "anonymous": false,
      "inputs": [
        {
          "indexed": true,
          "internalType": "address",
          "name": "owner",
          "type": "address"
        },
        {
          "indexed": true,
          "internalType": "address",
          "name": "spender",
          "type": "address"
        },
        {
          "indexed": false,
          "internalType": "uint256",
          "name": "value",
          "type": "uint256"
        }
      ],
      "name": "Approval",
      "type": "event"
    },
    {
      "anonymous": false,
      "inputs": [
        {
          "indexed": true,
          "internalType": "address",
          "name": "previousOwner",
          "type": "address"
        },
        {
          "indexed": true,
          "internalType": "address",
          "name": "newOwner",
          "type": "address"
        }
      ],
      "name": "OwnershipTransferred",
      "type": "event"
    },
    {
      "anonymous": false,
      "inputs": [
        {
          "indexed": true,
          "internalType": "address",
          "name": "from",
          "type": "address"
        },
        {
          "indexed": true,
          "internalType": "address",
          "name": "to",
          "type": "address"
        },
        {
          "indexed": false,
          "internalType": "uint256",
          "name": "value",
          "type": "uint256"
        }
      ],
      "name": "Transfer",
      "type": "event"
    },
    {
      "inputs": [],
      "name": "CLAIM_END_TIME",
      "outputs": [
        {
          "internalType": "uint256",
          "name": "",
          "type": "uint256"
        }
      ],
      "stateMutability": "view",
      "type": "function"
    },
    {
      "inputs": [],
      "name": "EMISSIONS_RATE",
      "outputs": [
        {
          "internalType": "uint256",
          "name": "",
          "type": "uint256"
        }
      ],
      "stateMutability": "view",
      "type": "function"
    },
    {
      "inputs": [],
      "name": "MAX_WALLET_STAKED",
      "outputs": [
        {
          "internalType": "uint256",
          "name": "",
          "type": "uint256"
        }
      ],
      "stateMutability": "view",
      "type": "function"
    },
    {
      "inputs": [],
      "name": "abeAddress",
      "outputs": [
        {
          "internalType": "address",
          "name": "",
          "type": "address"
        }
      ],
      "stateMutability": "view",
      "type": "function"
    },
    {
      "inputs": [
        {
          "internalType": "address",
          "name": "owner",
          "type": "address"
        },
        {
          "internalType": "address",
          "name": "spender",
          "type": "address"
        }
      ],
      "name": "allowance",
      "outputs": [
        {
          "internalType": "uint256",
          "name": "",
          "type": "uint256"
        }
      ],
      "stateMutability": "view",
      "type": "function"
    },
    {
      "inputs": [
        {
          "internalType": "address",
          "name": "spender",
          "type": "address"
        },
        {
          "internalType": "uint256",
          "name": "amount",
          "type": "uint256"
        }
      ],
      "name": "approve",
      "outputs": [
        {
          "internalType": "bool",
          "name": "",
          "type": "bool"
        }
      ],
      "stateMutability": "nonpayable",
      "type": "function"
    },
    {
      "inputs": [
        {
          "internalType": "address",
          "name": "account",
          "type": "address"
        }
      ],
      "name": "balanceOf",
      "outputs": [
        {
          "internalType": "uint256",
          "name": "",
          "type": "uint256"
        }
      ],
      "stateMutability": "view",
      "type": "function"
    },
    {
      "inputs": [],
      "name": "bennyAddress",
      "outputs": [
        {
          "internalType": "address",
          "name": "",
          "type": "address"
        }
      ],
      "stateMutability": "view",
      "type": "function"
    },
    {
      "inputs": [
        {
          "internalType": "uint256",
          "name": "amount",
          "type": "uint256"
        }
      ],
      "name": "burn",
      "outputs": [],
      "stateMutability": "nonpayable",
      "type": "function"
    },
    {
      "inputs": [
        {
          "internalType": "address",
          "name": "account",
          "type": "address"
        },
        {
          "internalType": "uint256",
          "name": "amount",
          "type": "uint256"
        }
      ],
      "name": "burnFrom",
      "outputs": [],
      "stateMutability": "nonpayable",
      "type": "function"
    },
    {
      "inputs": [],
      "name": "decimals",
      "outputs": [
        {
          "internalType": "uint8",
          "name": "",
          "type": "uint8"
        }
      ],
      "stateMutability": "view",
      "type": "function"
    },
    {
      "inputs": [
        {
          "internalType": "address",
          "name": "spender",
          "type": "address"
        },
        {
          "internalType": "uint256",
          "name": "subtractedValue",
          "type": "uint256"
        }
      ],
      "name": "decreaseAllowance",
      "outputs": [
        {
          "internalType": "bool",
          "name": "",
          "type": "bool"
        }
      ],
      "stateMutability": "nonpayable",
      "type": "function"
    },
    {
      "inputs": [],
      "name": "grantAddress",
      "outputs": [
        {
          "internalType": "address",
          "name": "",
          "type": "address"
        }
      ],
      "stateMutability": "view",
      "type": "function"
    },
    {
      "inputs": [],
      "name": "hamiltonAddress",
      "outputs": [
        {
          "internalType": "address",
          "name": "",
          "type": "address"
        }
      ],
      "stateMutability": "view",
      "type": "function"
    },
    {
      "inputs": [
        {
          "internalType": "address",
          "name": "spender",
          "type": "address"
        },
        {
          "internalType": "uint256",
          "name": "addedValue",
          "type": "uint256"
        }
      ],
      "name": "increaseAllowance",
      "outputs": [
        {
          "internalType": "bool",
          "name": "",
          "type": "bool"
        }
      ],
      "stateMutability": "nonpayable",
      "type": "function"
    },
    {
      "inputs": [],
      "name": "jacksonAddress",
      "outputs": [
        {
          "internalType": "address",
          "name": "",
          "type": "address"
        }
      ],
      "stateMutability": "view",
      "type": "function"
    },
    {
      "inputs": [],
      "name": "name",
      "outputs": [
        {
          "internalType": "string",
          "name": "",
          "type": "string"
        }
      ],
      "stateMutability": "view",
      "type": "function"
    },
    {
      "inputs": [],
      "name": "owner",
      "outputs": [
        {
          "internalType": "address",
          "name": "",
          "type": "address"
        }
      ],
      "stateMutability": "view",
      "type": "function"
    },
    {
      "inputs": [],
      "name": "renounceOwnership",
      "outputs": [],
      "stateMutability": "nonpayable",
      "type": "function"
    },
    {
      "inputs": [],
      "name": "symbol",
      "outputs": [
        {
          "internalType": "string",
          "name": "",
          "type": "string"
        }
      ],
      "stateMutability": "view",
      "type": "function"
    },
    {
      "inputs": [],
      "name": "totalSupply",
      "outputs": [
        {
          "internalType": "uint256",
          "name": "",
          "type": "uint256"
        }
      ],
      "stateMutability": "view",
      "type": "function"
    },
    {
      "inputs": [
        {
          "internalType": "address",
          "name": "recipient",
          "type": "address"
        },
        {
          "internalType": "uint256",
          "name": "amount",
          "type": "uint256"
        }
      ],
      "name": "transfer",
      "outputs": [
        {
          "internalType": "bool",
          "name": "",
          "type": "bool"
        }
      ],
      "stateMutability": "nonpayable",
      "type": "function"
    },
    {
      "inputs": [
        {
          "internalType": "address",
          "name": "sender",
          "type": "address"
        },
        {
          "internalType": "address",
          "name": "recipient",
          "type": "address"
        },
        {
          "internalType": "uint256",
          "name": "amount",
          "type": "uint256"
        }
      ],
      "name": "transferFrom",
      "outputs": [
        {
          "internalType": "bool",
          "name": "",
          "type": "bool"
        }
      ],
      "stateMutability": "nonpayable",
      "type": "function"
    },
    {
      "inputs": [
        {
          "internalType": "address",
          "name": "newOwner",
          "type": "address"
        }
      ],
      "name": "transferOwnership",
      "outputs": [],
      "stateMutability": "nonpayable",
      "type": "function"
    },
    {
      "inputs": [],
      "name": "washieAddress",
      "outputs": [
        {
          "internalType": "address",
          "name": "",
          "type": "address"
        }
      ],
      "stateMutability": "view",
      "type": "function"
    },
    {
      "inputs": [
        {
          "internalType": "address",
          "name": "_washieAddress",
          "type": "address"
        }
      ],
      "name": "setWashieAddress",
      "outputs": [],
      "stateMutability": "nonpayable",
      "type": "function"
    },
    {
      "inputs": [
        {
          "internalType": "address",
          "name": "_abeAddress",
          "type": "address"
        }
      ],
      "name": "setAbeAddress",
      "outputs": [],
      "stateMutability": "nonpayable",
      "type": "function"
    },
    {
      "inputs": [
        {
          "internalType": "address",
          "name": "_hamiltonAddress",
          "type": "address"
        }
      ],
      "name": "setHamiltonAddress",
      "outputs": [],
      "stateMutability": "nonpayable",
      "type": "function"
    },
    {
      "inputs": [
        {
          "internalType": "address",
          "name": "_jacksonAddress",
          "type": "address"
        }
      ],
      "name": "setJacksonAddress",
      "outputs": [],
      "stateMutability": "nonpayable",
      "type": "function"
    },
    {
      "inputs": [
        {
          "internalType": "address",
          "name": "_grantAddress",
          "type": "address"
        }
      ],
      "name": "setGrantAddress",
      "outputs": [],
      "stateMutability": "nonpayable",
      "type": "function"
    },
    {
      "inputs": [
        {
          "internalType": "address",
          "name": "_bennyAddress",
          "type": "address"
        }
      ],
      "name": "setBennyAddress",
      "outputs": [],
      "stateMutability": "nonpayable",
      "type": "function"
    },
    {
      "inputs": [
        {
          "internalType": "address",
          "name": "staker",
          "type": "address"
        }
      ],
      "name": "getTokensStaked",
      "outputs": [
        {
          "internalType": "uint256[]",
          "name": "",
          "type": "uint256[]"
        }
      ],
      "stateMutability": "view",
      "type": "function"
    },
    {
      "inputs": [
        {
          "internalType": "uint256[]",
          "name": "tokenIds",
          "type": "uint256[]"
        }
      ],
      "name": "stakeByIds",
      "outputs": [],
      "stateMutability": "nonpayable",
      "type": "function"
    },
    {
      "inputs": [],
      "name": "unstakeAll",
      "outputs": [],
      "stateMutability": "nonpayable",
      "type": "function"
    },
    {
      "inputs": [
        {
          "internalType": "uint256[]",
          "name": "tokenIds",
          "type": "uint256[]"
        }
      ],
      "name": "unstakeByIds",
      "outputs": [],
      "stateMutability": "nonpayable",
      "type": "function"
    },
    {
      "inputs": [
        {
          "internalType": "uint256",
          "name": "tokenId",
          "type": "uint256"
        }
      ],
      "name": "claimByTokenId",
      "outputs": [],
      "stateMutability": "nonpayable",
      "type": "function"
    },
    {
      "inputs": [],
      "name": "claimAll",
      "outputs": [],
      "stateMutability": "nonpayable",
      "type": "function"
    },
    {
      "inputs": [
        {
          "internalType": "address",
          "name": "staker",
          "type": "address"
        }
      ],
      "name": "getAllRewards",
      "outputs": [
        {
          "internalType": "uint256",
          "name": "",
          "type": "uint256"
        }
      ],
      "stateMutability": "view",
      "type": "function"
    },
    {
      "inputs": [
        {
          "internalType": "uint256",
          "name": "tokenId",
          "type": "uint256"
        }
      ],
      "name": "getRewardsByTokenId",
      "outputs": [
        {
          "internalType": "uint256",
          "name": "",
          "type": "uint256"
        }
      ],
      "stateMutability": "view",
      "type": "function"
    },
    {
      "inputs": [
        {
          "internalType": "uint256",
          "name": "tokenId",
          "type": "uint256"
        }
      ],
      "name": "getStaker",
      "outputs": [
        {
          "internalType": "address",
          "name": "",
          "type": "address"
        }
      ],
      "stateMutability": "view",
      "type": "function"
    }
  ],
  "bytecode": "0x60806040526064600655650a86cc54b9806007556363b0b0df600855600980546001600160a01b03191690553480156200003857600080fd5b506040805180820182526009815268556e737461626c657360b81b6020808301918252835180850190945260048452631d54d51160e21b908401528151919291620000869160039162000214565b5080516200009c90600490602084019062000214565b505050620000b9620000b3620000d660201b60201c565b620000da565b620000d0336a295be96e640669720000006200012c565b6200031c565b3390565b600580546001600160a01b038381166001600160a01b0319831681179093556040519116919082907f8be0079c531659141344cd1fd0a4f28419497f9722a3daafe3b4186f6b6457e090600090a35050565b6001600160a01b038216620001875760405162461bcd60e51b815260206004820152601f60248201527f45524332303a206d696e7420746f20746865207a65726f206164647265737300604482015260640160405180910390fd5b80600260008282546200019b9190620002ba565b90915550506001600160a01b03821660009081526020819052604081208054839290620001ca908490620002ba565b90915550506040518181526001600160a01b038316906000907fddf252ad1be2c89b69c2b068fc378daa952ba7f163c4a11628f55a4df523b3ef9060200160405180910390a35050565b8280546200022290620002df565b90600052602060002090601f01602090048101928262000246576000855562000291565b82601f106200026157805160ff191683800117855562000291565b8280016001018555821562000291579182015b828111156200029157825182559160200191906001019062000274565b506200029f929150620002a3565b5090565b5b808211156200029f5760008155600101620002a4565b60008219821115620002da57634e487b7160e01b81526011600452602481fd5b500190565b600181811c90821680620002f457607f821691505b602082108114156200031657634e487b7160e01b600052602260045260246000fd5b50919050565b61303e806200032c6000396000f3fe608060405234801561001057600080fd5b50600436106102485760003560e01c806378ba954d1161013b578063a9a860fc116100b8578063dd62ed3e1161007c578063dd62ed3e146104ed578063e3c998fe14610526578063f293c3cd1461054f578063f2fde38b14610562578063f71cbca81461057557600080fd5b8063a9a860fc146104a3578063b38bef74146104b6578063ba7e7662146104c9578063d1058e59146104d2578063d9ffad47146104da57600080fd5b806395d89b41116100ff57806395d89b411461044f578063a457c2d714610457578063a871c5f01461046a578063a9059cbb1461047d578063a99d2ee61461049057600080fd5b806378ba954d146103fc57806379cc67901461040f5780638a8d5b56146104225780638ab8fab3146104355780638da5cb5b1461043e57600080fd5b8063362a3fad116101c957806352eb77961161018d57806352eb779614610385578063580d5616146103a55780635e1f1e2a146103b857806370a08231146103cb578063715018a6146103f457600080fd5b8063362a3fad14610326578063395093511461033957806342966c681461034c57806348aa19361461035f578063515ec1051461037257600080fd5b80632209d38c116102105780632209d38c146102c857806323b872dd146102d15780632c575228146102e4578063313ce5671461030f57806335322f371461031e57600080fd5b806306fdde031461024d578063093de7151461026b578063095ea7b31461028057806313a302a5146102a357806318160ddd146102b6575b600080fd5b610255610588565b6040516102629190612e84565b60405180910390f35b61027e610279366004612c86565b61061a565b005b61029361028e366004612d3d565b61066c565b6040519015158152602001610262565b61027e6102b1366004612c86565b610682565b6002545b604051908152602001610262565b6102ba60085481565b6102936102df366004612cfd565b6106cc565b600a546102f7906001600160a01b031681565b6040516001600160a01b039091168152602001610262565b60405160128152602001610262565b61027e610776565b6102ba610334366004612c86565b610a69565b610293610347366004612d3d565b610ddd565b61027e61035a366004612e28565b610e19565b61027e61036d366004612d68565b610e23565b6102ba610380366004612e28565b61138f565b610398610393366004612c86565b6114fe565b6040516102629190612e40565b61027e6103b3366004612c86565b61156a565b61027e6103c6366004612e28565b6115b4565b6102ba6103d9366004612c86565b6001600160a01b031660009081526020819052604090205490565b61027e611783565b600d546102f7906001600160a01b031681565b61027e61041d366004612d3d565b6117b9565b600f546102f7906001600160a01b031681565b6102ba60065481565b6005546001600160a01b03166102f7565b61025561183f565b610293610465366004612d3d565b61184e565b600c546102f7906001600160a01b031681565b61029361048b366004612d3d565b6118e7565b61027e61049e366004612c86565b6118f4565b61027e6104b1366004612c86565b61193e565b600b546102f7906001600160a01b031681565b6102ba60075481565b61027e611988565b61027e6104e8366004612d68565b611e1f565b6102ba6104fb366004612cc5565b6001600160a01b03918216600090815260016020908152604080832093909416825291909152205490565b6102f7610534366004612e28565b6000908152601160205260409020546001600160a01b031690565b61027e61055d366004612c86565b612459565b61027e610570366004612c86565b6124a3565b600e546102f7906001600160a01b031681565b60606003805461059790612f71565b80601f01602080910402602001604051908101604052809291908181526020018280546105c390612f71565b80156106105780601f106105e557610100808354040283529160200191610610565b820191906000526020600020905b8154815290600101906020018083116105f357829003601f168201915b5050505050905090565b6005546001600160a01b0316331461064d5760405162461bcd60e51b815260040161064490612ed7565b60405180910390fd5b600b80546001600160a01b0319166001600160a01b0383161790555b50565b600061067933848461253b565b50600192915050565b6005546001600160a01b031633146106ac5760405162461bcd60e51b815260040161064490612ed7565b600d80546001600160a01b0383166001600160a01b031990911617905550565b60006106d984848461265f565b6001600160a01b03841660009081526001602090815260408083203384529091529020548281101561075e5760405162461bcd60e51b815260206004820152602860248201527f45524332303a207472616e7366657220616d6f756e74206578636565647320616044820152676c6c6f77616e636560c01b6064820152608401610644565b61076b853385840361253b565b506001949350505050565b336000908152601260205260409020546107de5760405162461bcd60e51b8152602060048201526024808201527f4d7573742068617665206174206c65617374206f6e6520746f6b656e207374616044820152636b65642160e01b6064820152608401610644565b33600090815260126020526040812054819081905b8015610a6357336000908152601260205260408120610813600184612f43565b8154811061083157634e487b7160e01b600052603260045260246000fd5b90600052602060002001549050612710811161085f57600a5460075494506001600160a01b03169250610977565b612710811180156108725750613a988111155b1561089c57600b546007546001600160a01b039091169350610895906005612f24565b9350610977565b613a98811180156108af575061445c8111155b156108d257600c546007546001600160a01b03909116935061089590600a612f24565b61445c811180156108e557506146508111155b1561090857600d546007546001600160a01b039091169350610895906014612f24565b6146508111801561091b5750614a388111155b1561093e57600e546007546001600160a01b039091169350610895906032612f24565b614a38811180156109515750614e208111155b1561097757600f546007546001600160a01b039091169350610974906064612f24565b93505b6040516323b872dd60e01b8152306004820152336024820152604481018290526001600160a01b038416906323b872dd90606401600060405180830381600087803b1580156109c557600080fd5b505af11580156109d9573d6000803e3d6000fd5b5050506000828152601060205260409020548591506109f89042612f43565b610a029190612f24565b610a0c9086612f0c565b9450610a18338261282d565b600954600082815260116020526040902080546001600160a01b0319166001600160a01b03909216919091179055610a5033866128b8565b5080610a5b81612f5a565b9150506107f3565b50505050565b6001600160a01b038116600090815260126020908152604080832080548251818502810185019093528083528493830182828015610ac657602002820191906000526020600020905b815481526020019060010190808311610ab2575b5050505050905060008060005b8351811015610dd357612710848281518110610aff57634e487b7160e01b600052603260045260246000fd5b602002602001015111610b16576007549150610d64565b612710848281518110610b3957634e487b7160e01b600052603260045260246000fd5b6020026020010151118015610b775750613a98848281518110610b6c57634e487b7160e01b600052603260045260246000fd5b602002602001015111155b15610b9157600754610b8a906005612f24565b9150610d64565b613a98848281518110610bb457634e487b7160e01b600052603260045260246000fd5b6020026020010151118015610bf2575061445c848281518110610be757634e487b7160e01b600052603260045260246000fd5b602002602001015111155b15610c0557600754610b8a90600a612f24565b61445c848281518110610c2857634e487b7160e01b600052603260045260246000fd5b6020026020010151118015610c665750614650848281518110610c5b57634e487b7160e01b600052603260045260246000fd5b602002602001015111155b15610c7957600754610b8a906014612f24565b614650848281518110610c9c57634e487b7160e01b600052603260045260246000fd5b6020026020010151118015610cda5750614a38848281518110610ccf57634e487b7160e01b600052603260045260246000fd5b602002602001015111155b15610ced57600754610b8a906032612f24565b614a38848281518110610d1057634e487b7160e01b600052603260045260246000fd5b6020026020010151118015610d4e5750614e20848281518110610d4357634e487b7160e01b600052603260045260246000fd5b602002602001015111155b15610d6457600754610d61906064612f24565b91505b8160106000868481518110610d8957634e487b7160e01b600052603260045260246000fd5b602002602001015181526020019081526020016000205442610dab9190612f43565b610db59190612f24565b610dbf9084612f0c565b925080610dcb81612fac565b915050610ad3565b5090949350505050565b3360008181526001602090815260408083206001600160a01b03871684529091528120549091610679918590610e14908690612f0c565b61253b565b6106693382612997565b60008080805b845181101561138857612710858281518110610e5557634e487b7160e01b600052603260045260246000fd5b602002602001015111610e7a57600a5460075493506001600160a01b03169150611118565b612710858281518110610e9d57634e487b7160e01b600052603260045260246000fd5b6020026020010151118015610edb5750613a98858281518110610ed057634e487b7160e01b600052603260045260246000fd5b602002602001015111155b15610f0557600b546007546001600160a01b039091169250610efe906005612f24565b9250611118565b613a98858281518110610f2857634e487b7160e01b600052603260045260246000fd5b6020026020010151118015610f66575061445c858281518110610f5b57634e487b7160e01b600052603260045260246000fd5b602002602001015111155b15610f8957600c546007546001600160a01b039091169250610efe90600a612f24565b61445c858281518110610fac57634e487b7160e01b600052603260045260246000fd5b6020026020010151118015610fea5750614650858281518110610fdf57634e487b7160e01b600052603260045260246000fd5b602002602001015111155b1561100d57600d546007546001600160a01b039091169250610efe906014612f24565b61465085828151811061103057634e487b7160e01b600052603260045260246000fd5b602002602001015111801561106e5750614a3885828151811061106357634e487b7160e01b600052603260045260246000fd5b602002602001015111155b1561109157600e546007546001600160a01b039091169250610efe906032612f24565b614a388582815181106110b457634e487b7160e01b600052603260045260246000fd5b60200260200101511180156110f25750614e208582815181106110e757634e487b7160e01b600052603260045260246000fd5b602002602001015111155b1561111857600f546007546001600160a01b039091169250611115906064612f24565b92505b336001600160a01b03166011600087848151811061114657634e487b7160e01b600052603260045260246000fd5b6020908102919091018101518252810191909152604001600020546001600160a01b0316146111c75760405162461bcd60e51b815260206004820152602760248201527f4d6573736167652053656e64657220776173206e6f74206f726967696e616c206044820152667374616b65722160c81b6064820152608401610644565b816001600160a01b03166323b872dd30338885815181106111f857634e487b7160e01b600052603260045260246000fd5b60209081029190910101516040516001600160e01b031960e086901b1681526001600160a01b0393841660048201529290911660248301526044820152606401600060405180830381600087803b15801561125257600080fd5b505af1158015611266573d6000803e3d6000fd5b50505050826010600087848151811061128f57634e487b7160e01b600052603260045260246000fd5b6020026020010151815260200190815260200160002054426112b19190612f43565b6112bb9190612f24565b6112c59085612f0c565b93506112f8338683815181106112eb57634e487b7160e01b600052603260045260246000fd5b602002602001015161282d565b600960009054906101000a90046001600160a01b03166011600087848151811061133257634e487b7160e01b600052603260045260246000fd5b6020026020010151815260200190815260200160002060006101000a8154816001600160a01b0302191690836001600160a01b0316021790555061137633856128b8565b8061138081612fac565b915050610e29565b5050505050565b60095460008281526011602052604081205490916001600160a01b03918216911614156113f55760405162461bcd60e51b8152602060048201526014602482015273546f6b656e206973206e6f74207374616b65642160601b6044820152606401610644565b6000612710831161140957506007546114d1565b6127108311801561141c5750613a988311155b156114365760075461142f906005612f24565b90506114d1565b613a9883118015611449575061445c8311155b1561145c5760075461142f90600a612f24565b61445c8311801561146f57506146508311155b156114825760075461142f906014612f24565b614650831180156114955750614a388311155b156114a85760075461142f906032612f24565b614a38831180156114bb5750614e208311155b156114d1576007546114ce906064612f24565b90505b6000838152601060205260408120546114ea9042612f43565b90506114f68282612f24565b949350505050565b6001600160a01b03811660009081526012602090815260409182902080548351818402810184019094528084526060939283018282801561155e57602002820191906000526020600020905b81548152602001906001019080831161154a575b50505050509050919050565b6005546001600160a01b031633146115945760405162461bcd60e51b815260040161064490612ed7565b600f80546001600160a01b0383166001600160a01b031990911617905550565b6000818152601160205260409020546001600160a01b0316331461161a5760405162461bcd60e51b815260206004820152601e60248201527f546f6b656e206973206e6f7420636c61696d61626c6520627920796f752100006044820152606401610644565b60085442106116635760405162461bcd60e51b8152602060048201526015602482015274436c61696d20706572696f64206973206f7665722160581b6044820152606401610644565b60006127108211611677575060075461173f565b6127108211801561168a5750613a988211155b156116a45760075461169d906005612f24565b905061173f565b613a98821180156116b7575061445c8211155b156116ca5760075461169d90600a612f24565b61445c821180156116dd57506146508211155b156116f05760075461169d906014612f24565b614650821180156117035750614a388211155b156117165760075461169d906032612f24565b614a38821180156117295750614e208211155b1561173f5760075461173c906064612f24565b90505b60008281526010602052604090205461176f90339083906117609042612f43565b61176a9190612f24565b6128b8565b506000908152601060205260409020429055565b6005546001600160a01b031633146117ad5760405162461bcd60e51b815260040161064490612ed7565b6117b76000612ae5565b565b60006117c583336104fb565b9050818110156118235760405162461bcd60e51b8152602060048201526024808201527f45524332303a206275726e20616d6f756e74206578636565647320616c6c6f77604482015263616e636560e01b6064820152608401610644565b611830833384840361253b565b61183a8383612997565b505050565b60606004805461059790612f71565b3360009081526001602090815260408083206001600160a01b0386168452909152812054828110156118d05760405162461bcd60e51b815260206004820152602560248201527f45524332303a2064656372656173656420616c6c6f77616e63652062656c6f77604482015264207a65726f60d81b6064820152608401610644565b6118dd338585840361253b565b5060019392505050565b600061067933848461265f565b6005546001600160a01b0316331461191e5760405162461bcd60e51b815260040161064490612ed7565b600e80546001600160a01b0383166001600160a01b031990911617905550565b6005546001600160a01b031633146119685760405162461bcd60e51b815260040161064490612ed7565b600a80546001600160a01b0383166001600160a01b031990911617905550565b60085442106119d15760405162461bcd60e51b8152602060048201526015602482015274436c61696d20706572696f64206973206f7665722160581b6044820152606401610644565b33600090815260126020908152604080832080548251818502810185019093528083529192909190830182828015611a2857602002820191906000526020600020905b815481526020019060010190808311611a14575b5050505050905060008060005b8351811015611e1457336001600160a01b031660116000868481518110611a6c57634e487b7160e01b600052603260045260246000fd5b6020908102919091018101518252810191909152604001600020546001600160a01b031614611add5760405162461bcd60e51b815260206004820152601e60248201527f546f6b656e206973206e6f7420636c61696d61626c6520627920796f752100006044820152606401610644565b612710848281518110611b0057634e487b7160e01b600052603260045260246000fd5b602002602001015111611b17576007549150611d65565b612710848281518110611b3a57634e487b7160e01b600052603260045260246000fd5b6020026020010151118015611b785750613a98848281518110611b6d57634e487b7160e01b600052603260045260246000fd5b602002602001015111155b15611b9257600754611b8b906005612f24565b9150611d65565b613a98848281518110611bb557634e487b7160e01b600052603260045260246000fd5b6020026020010151118015611bf3575061445c848281518110611be857634e487b7160e01b600052603260045260246000fd5b602002602001015111155b15611c0657600754611b8b90600a612f24565b61445c848281518110611c2957634e487b7160e01b600052603260045260246000fd5b6020026020010151118015611c675750614650848281518110611c5c57634e487b7160e01b600052603260045260246000fd5b602002602001015111155b15611c7a57600754611b8b906014612f24565b614650848281518110611c9d57634e487b7160e01b600052603260045260246000fd5b6020026020010151118015611cdb5750614a38848281518110611cd057634e487b7160e01b600052603260045260246000fd5b602002602001015111155b15611cee57600754611b8b906032612f24565b614a38848281518110611d1157634e487b7160e01b600052603260045260246000fd5b6020026020010151118015611d4f5750614e20848281518110611d4457634e487b7160e01b600052603260045260246000fd5b602002602001015111155b15611d6557600754611d62906064612f24565b91505b8160106000868481518110611d8a57634e487b7160e01b600052603260045260246000fd5b602002602001015181526020019081526020016000205442611dac9190612f43565b611db69190612f24565b611dc09084612f0c565b92504260106000868481518110611de757634e487b7160e01b600052603260045260246000fd5b60200260200101518152602001908152602001600020819055508080611e0c90612fac565b915050611a35565b5061183a33836128b8565b600654815133600090815260126020526040902054611e3e9190612f0c565b1115611e9e5760405162461bcd60e51b815260206004820152602960248201527f4d7573742068617665206c657373207468616e20333120707265736964656e7460448201526873207374616b65642160b81b6064820152608401610644565b6000805b825181101561183a57612710838281518110611ece57634e487b7160e01b600052603260045260246000fd5b602002602001015111611eee57600a546001600160a01b03169150612147565b612710838281518110611f1157634e487b7160e01b600052603260045260246000fd5b6020026020010151118015611f4f5750613a98838281518110611f4457634e487b7160e01b600052603260045260246000fd5b602002602001015111155b15611f6757600b546001600160a01b03169150612147565b613a98838281518110611f8a57634e487b7160e01b600052603260045260246000fd5b6020026020010151118015611fc8575061445c838281518110611fbd57634e487b7160e01b600052603260045260246000fd5b602002602001015111155b15611fe057600c546001600160a01b03169150612147565b61445c83828151811061200357634e487b7160e01b600052603260045260246000fd5b6020026020010151118015612041575061465083828151811061203657634e487b7160e01b600052603260045260246000fd5b602002602001015111155b1561205957600d546001600160a01b03169150612147565b61465083828151811061207c57634e487b7160e01b600052603260045260246000fd5b60200260200101511180156120ba5750614a388382815181106120af57634e487b7160e01b600052603260045260246000fd5b602002602001015111155b156120d257600e546001600160a01b03169150612147565b614a388382815181106120f557634e487b7160e01b600052603260045260246000fd5b60200260200101511180156121335750614e2083828151811061212857634e487b7160e01b600052603260045260246000fd5b602002602001015111155b1561214757600f546001600160a01b031691505b336001600160a01b0316826001600160a01b0316636352211e85848151811061218057634e487b7160e01b600052603260045260246000fd5b60200260200101516040518263ffffffff1660e01b81526004016121a691815260200190565b60206040518083038186803b1580156121be57600080fd5b505afa1580156121d2573d6000803e3d6000fd5b505050506040513d601f19601f820116820180604052508101906121f69190612ca9565b6001600160a01b0316148015612264575060095483516001600160a01b039091169060119060009086908590811061223e57634e487b7160e01b600052603260045260246000fd5b6020908102919091018101518252810191909152604001600020546001600160a01b0316145b6122b05760405162461bcd60e51b815260206004820152601e60248201527f546f6b656e206d757374206265207374616b61626c6520627920796f752100006044820152606401610644565b816001600160a01b03166323b872dd33308685815181106122e157634e487b7160e01b600052603260045260246000fd5b60209081029190910101516040516001600160e01b031960e086901b1681526001600160a01b0393841660048201529290911660248301526044820152606401600060405180830381600087803b15801561233b57600080fd5b505af115801561234f573d6000803e3d6000fd5b505033600090815260126020526040902085519092508591508390811061238657634e487b7160e01b600052603260045260246000fd5b6020908102919091018101518254600181018455600093845291832090910155835142916010918690859081106123cd57634e487b7160e01b600052603260045260246000fd5b6020026020010151815260200190815260200160002081905550336011600085848151811061240c57634e487b7160e01b600052603260045260246000fd5b6020026020010151815260200190815260200160002060006101000a8154816001600160a01b0302191690836001600160a01b03160217905550808061245190612fac565b915050611ea2565b6005546001600160a01b031633146124835760405162461bcd60e51b815260040161064490612ed7565b600c80546001600160a01b0383166001600160a01b031990911617905550565b6005546001600160a01b031633146124cd5760405162461bcd60e51b815260040161064490612ed7565b6001600160a01b0381166125325760405162461bcd60e51b815260206004820152602660248201527f4f776e61626c653a206e6577206f776e657220697320746865207a65726f206160448201526564647265737360d01b6064820152608401610644565b61066981612ae5565b6001600160a01b03831661259d5760405162461bcd60e51b8152602060048201526024808201527f45524332303a20617070726f76652066726f6d20746865207a65726f206164646044820152637265737360e01b6064820152608401610644565b6001600160a01b0382166125fe5760405162461bcd60e51b815260206004820152602260248201527f45524332303a20617070726f766520746f20746865207a65726f206164647265604482015261737360f01b6064820152608401610644565b6001600160a01b0383811660008181526001602090815260408083209487168084529482529182902085905590518481527f8c5be1e5ebec7d5bd14f71427d1e84f3dd0314c0f7b2291e5b200ac8c7c3b925910160405180910390a3505050565b6001600160a01b0383166126c35760405162461bcd60e51b815260206004820152602560248201527f45524332303a207472616e736665722066726f6d20746865207a65726f206164604482015264647265737360d81b6064820152608401610644565b6001600160a01b0382166127255760405162461bcd60e51b815260206004820152602360248201527f45524332303a207472616e7366657220746f20746865207a65726f206164647260448201526265737360e81b6064820152608401610644565b6001600160a01b0383166000908152602081905260409020548181101561279d5760405162461bcd60e51b815260206004820152602660248201527f45524332303a207472616e7366657220616d6f756e7420657863656564732062604482015265616c616e636560d01b6064820152608401610644565b6001600160a01b038085166000908152602081905260408082208585039055918516815290812080548492906127d4908490612f0c565b92505081905550826001600160a01b0316846001600160a01b03167fddf252ad1be2c89b69c2b068fc378daa952ba7f163c4a11628f55a4df523b3ef8460405161282091815260200190565b60405180910390a3610a63565b60005b6001600160a01b03831660009081526012602052604090205481101561183a576001600160a01b038316600090815260126020526040902080548391908390811061288b57634e487b7160e01b600052603260045260246000fd5b906000526020600020015414156128a6576128a68382612b37565b806128b081612fac565b915050612830565b6001600160a01b03821661290e5760405162461bcd60e51b815260206004820152601f60248201527f45524332303a206d696e7420746f20746865207a65726f2061646472657373006044820152606401610644565b80600260008282546129209190612f0c565b90915550506001600160a01b0382166000908152602081905260408120805483929061294d908490612f0c565b90915550506040518181526001600160a01b038316906000907fddf252ad1be2c89b69c2b068fc378daa952ba7f163c4a11628f55a4df523b3ef9060200160405180910390a35050565b6001600160a01b0382166129f75760405162461bcd60e51b815260206004820152602160248201527f45524332303a206275726e2066726f6d20746865207a65726f206164647265736044820152607360f81b6064820152608401610644565b6001600160a01b03821660009081526020819052604090205481811015612a6b5760405162461bcd60e51b815260206004820152602260248201527f45524332303a206275726e20616d6f756e7420657863656564732062616c616e604482015261636560f01b6064820152608401610644565b6001600160a01b0383166000908152602081905260408120838303905560028054849290612a9a908490612f43565b90915550506040518281526000906001600160a01b038516907fddf252ad1be2c89b69c2b068fc378daa952ba7f163c4a11628f55a4df523b3ef9060200160405180910390a3505050565b600580546001600160a01b038381166001600160a01b0319831681179093556040519116919082907f8be0079c531659141344cd1fd0a4f28419497f9722a3daafe3b4186f6b6457e090600090a35050565b6001600160a01b0382166000908152601260205260409020548110612b5a575050565b805b6001600160a01b038316600090815260126020526040902054612b8190600190612f43565b811015612c36576001600160a01b0383166000908152601260205260409020612bab826001612f0c565b81548110612bc957634e487b7160e01b600052603260045260246000fd5b906000526020600020015460126000856001600160a01b03166001600160a01b031681526020019081526020016000208281548110612c1857634e487b7160e01b600052603260045260246000fd5b60009182526020909120015580612c2e81612fac565b915050612b5c565b506001600160a01b0382166000908152601260205260409020805480612c6c57634e487b7160e01b600052603160045260246000fd5b600190038181906000526020600020016000905590555050565b600060208284031215612c97578081fd5b8135612ca281612ff3565b9392505050565b600060208284031215612cba578081fd5b8151612ca281612ff3565b60008060408385031215612cd7578081fd5b8235612ce281612ff3565b91506020830135612cf281612ff3565b809150509250929050565b600080600060608486031215612d11578081fd5b8335612d1c81612ff3565b92506020840135612d2c81612ff3565b929592945050506040919091013590565b60008060408385031215612d4f578182fd5b8235612d5a81612ff3565b946020939093013593505050565b60006020808385031215612d7a578182fd5b823567ffffffffffffffff80821115612d91578384fd5b818501915085601f830112612da4578384fd5b813581811115612db657612db6612fdd565b8060051b604051601f19603f83011681018181108582111715612ddb57612ddb612fdd565b604052828152858101935084860182860187018a1015612df9578788fd5b8795505b83861015612e1b578035855260019590950194938601938601612dfd565b5098975050505050505050565b600060208284031215612e39578081fd5b5035919050565b6020808252825182820181905260009190848201906040850190845b81811015612e7857835183529284019291840191600101612e5c565b50909695505050505050565b6000602080835283518082850152825b81811015612eb057858101830151858201604001528201612e94565b81811115612ec15783604083870101525b50601f01601f1916929092016040019392505050565b6020808252818101527f4f776e61626c653a2063616c6c6572206973206e6f7420746865206f776e6572604082015260600190565b60008219821115612f1f57612f1f612fc7565b500190565b6000816000190483118215151615612f3e57612f3e612fc7565b500290565b600082821015612f5557612f55612fc7565b500390565b600081612f6957612f69612fc7565b506000190190565b600181811c90821680612f8557607f821691505b60208210811415612fa657634e487b7160e01b600052602260045260246000fd5b50919050565b6000600019821415612fc057612fc0612fc7565b5060010190565b634e487b7160e01b600052601160045260246000fd5b634e487b7160e01b600052604160045260246000fd5b6001600160a01b038116811461066957600080fdfea264697066735822122020b2b1b64ecb3ae0ba2bf781520a65eb74c1939fa0f64ba6269d005d434d7f0664736f6c63430008040033",
  "immutableReferences": {},
  "source": "\n// SPDX-License-Identifier: MIT\npragma solidity ^0.8.0;\n\nimport \"@openzeppelin/contracts/token/ERC20/extensions/ERC20Burnable.sol\";\nimport \"@openzeppelin/contracts/access/Ownable.sol\";\nimport \"@openzeppelin/contracts/utils/math/SafeMath.sol\";\nimport \"@openzeppelin/contracts/token/ERC721/extensions/IERC721Enumerable.sol\";\n\ncontract uSTD is ERC20Burnable, Ownable {\n    /*\n    $uSTD backed by the presidents \n*/\n\n    using SafeMath for uint256;\n\n    uint256 public MAX_WALLET_STAKED = 100;\n    uint256 public EMISSIONS_RATE = 11574070000000;\n    uint256 public CLAIM_END_TIME = 1672523999;\n\n    address nullAddress = 0x0000000000000000000000000000000000000000;\n\n    address public washieAddress;   // tokenid's 1 - 10,000\n    address public abeAddress;      // tokenid's 10001 - 15000\n    address public hamiltonAddress; // tokenid's 15001 - 17500\n    address public jacksonAddress;  // tokenid's 17501 - 19000\n    address public grantAddress;    // tokenid's 19001 - 19750\n    address public bennyAddress;    // tokenid's 19751 - 20000\n    \n    //Mapping of president to timestamp\n    mapping(uint256 => uint256) internal tokenIdToTimeStamp;\n\n    //Mapping of president to staker\n    mapping(uint256 => address) internal tokenIdToStaker;\n\n    //Mapping of staker to president\n    mapping(address => uint256[]) internal stakerToTokenIds;\n\n    constructor() ERC20(\"Unstables\", \"uSTD\") {\n        _mint(msg.sender, (50000000 * 10**18));\n    }\n\n    function setWashieAddress(address _washieAddress) public onlyOwner {\n        washieAddress = _washieAddress;\n        return;\n    }\n    \n    function setAbeAddress(address _abeAddress) public onlyOwner {\n        abeAddress = _abeAddress;\n        return;\n    }\n\n    function setHamiltonAddress(address _hamiltonAddress) public onlyOwner {\n        hamiltonAddress = _hamiltonAddress;\n        return;\n    }\n    \n    function setJacksonAddress(address _jacksonAddress) public onlyOwner {\n        jacksonAddress = _jacksonAddress;\n        return;\n    }\n    \n    function setGrantAddress(address _grantAddress) public onlyOwner {\n        grantAddress = _grantAddress;\n        return;\n    }\n    \n    function setBennyAddress(address _bennyAddress) public onlyOwner {\n        bennyAddress = _bennyAddress;\n        return;\n    }\n    \n    function getTokensStaked(address staker)\n        public\n        view\n        returns (uint256[] memory)\n    {\n        return stakerToTokenIds[staker];\n    }\n\n    function remove(address staker, uint256 index) internal {\n        if (index >= stakerToTokenIds[staker].length) return;\n\n        for (uint256 i = index; i < stakerToTokenIds[staker].length - 1; i++) {\n            stakerToTokenIds[staker][i] = stakerToTokenIds[staker][i + 1];\n        }\n        stakerToTokenIds[staker].pop();\n    }\n\n    function removeTokenIdFromStaker(address staker, uint256 tokenId) internal {\n        for (uint256 i = 0; i < stakerToTokenIds[staker].length; i++) {\n            if (stakerToTokenIds[staker][i] == tokenId) {\n                //This is the tokenId to remove;\n                remove(staker, i);\n            }\n        }\n    }\n\n    function stakeByIds(uint256[] memory tokenIds) public {\n        require(\n            stakerToTokenIds[msg.sender].length + tokenIds.length <=\n                MAX_WALLET_STAKED,\n            \"Must have less than 31 presidents staked!\"\n        );\n        \n        address prez;\n        \n        for (uint256 i = 0; i < tokenIds.length; i++) {\n            if (tokenIds[i] <= 10000) {\n                prez = washieAddress ;\n            } else if (tokenIds[i] > 10000 && tokenIds[i] <= 15000) {\n                prez = abeAddress;\n            } else if (tokenIds[i] > 15000 && tokenIds[i] <= 17500) {\n                prez = hamiltonAddress;\n            } else if (tokenIds[i] > 17500 && tokenIds[i] <= 18000) {\n                prez = jacksonAddress;\n            } else if (tokenIds[i] > 18000 && tokenIds[i] <= 19000) {\n                prez = grantAddress;\n            } else if (tokenIds[i] > 19000 && tokenIds[i] <= 20000) {\n                prez = bennyAddress;\n            }\n            \n            require(\n                    IERC721(prez).ownerOf(tokenIds[i]) == msg.sender \n                    &&\n                        tokenIdToStaker[tokenIds[i]] == nullAddress,\n                    \"Token must be stakable by you!\"\n                );\n    \n            IERC721(prez).transferFrom(\n                    msg.sender,\n                    address(this),\n                    tokenIds[i]\n                );\n            \n            \n\n            stakerToTokenIds[msg.sender].push(tokenIds[i]);\n\n            tokenIdToTimeStamp[tokenIds[i]] = block.timestamp;\n            tokenIdToStaker[tokenIds[i]] = msg.sender;\n        }\n    }\n\n    function unstakeAll() public {\n        require(\n            stakerToTokenIds[msg.sender].length > 0,\n            \"Must have at least one token staked!\"\n        );\n        uint256 totalRewards = 0;\n        \n        uint256 presidentEmissions = 0;\n        \n        address prez;\n\n        for (uint256 i = stakerToTokenIds[msg.sender].length; i > 0; i--) {\n            \n            uint256 tokenId = stakerToTokenIds[msg.sender][i - 1];\n            \n            if (tokenId <= 10000) {\n                prez = washieAddress;\n                presidentEmissions = EMISSIONS_RATE;\n            } else if (tokenId > 10000 && tokenId <= 15000) {\n                prez = abeAddress;\n                presidentEmissions = EMISSIONS_RATE * 5;\n            } else if (tokenId > 15000 && tokenId <= 17500) {\n                prez = hamiltonAddress;\n                presidentEmissions = EMISSIONS_RATE * 10;\n            } else if (tokenId > 17500 && tokenId <= 18000) {\n                prez = jacksonAddress;\n                presidentEmissions = EMISSIONS_RATE * 20;\n            } else if (tokenId > 18000 && tokenId <= 19000) {\n                prez = grantAddress;\n                presidentEmissions = EMISSIONS_RATE * 50;\n            } else if (tokenId > 19000 && tokenId <= 20000) {\n                prez = bennyAddress;\n                presidentEmissions = EMISSIONS_RATE * 100;\n            }\n\n            IERC721(prez).transferFrom(\n                address(this),\n                msg.sender,\n                tokenId\n            );\n\n            totalRewards =\n                totalRewards +\n                ((block.timestamp - tokenIdToTimeStamp[tokenId]) *\n                    presidentEmissions);\n\n            removeTokenIdFromStaker(msg.sender, tokenId);\n\n            tokenIdToStaker[tokenId] = nullAddress;\n            \n            _mint(msg.sender, totalRewards);\n        }\n\n        \n    }\n\n    function unstakeByIds(uint256[] memory tokenIds) public {\n        uint256 totalRewards = 0;\n        \n        uint256 presidentEmissions = 0;\n        \n        address prez;\n\n        for (uint256 i = 0; i < tokenIds.length; i++) {\n           \n            if (tokenIds[i] <= 10000) {\n                prez = washieAddress;\n                presidentEmissions = EMISSIONS_RATE;\n            } else if (tokenIds[i] > 10000 && tokenIds[i] <= 15000) {\n                prez = abeAddress;\n                presidentEmissions = EMISSIONS_RATE * 5;\n            } else if (tokenIds[i] > 15000 && tokenIds[i] <= 17500) {\n                prez = hamiltonAddress;\n                presidentEmissions = EMISSIONS_RATE * 10;\n            } else if (tokenIds[i] > 17500 && tokenIds[i] <= 18000) {\n                prez = jacksonAddress;\n                presidentEmissions = EMISSIONS_RATE * 20;\n            } else if (tokenIds[i] > 18000 && tokenIds[i] <= 19000) {\n                prez = grantAddress;\n                presidentEmissions = EMISSIONS_RATE * 50;\n            } else if (tokenIds[i] > 19000 && tokenIds[i] <= 20000) {\n                prez = bennyAddress;\n                presidentEmissions = EMISSIONS_RATE * 100;\n            }\n            \n            require(\n                tokenIdToStaker[tokenIds[i]] == msg.sender,\n                \"Message Sender was not original staker!\"\n            );\n\n            IERC721(prez).transferFrom(\n                address(this),\n                msg.sender,\n                tokenIds[i]\n            );\n\n            totalRewards =\n                totalRewards +\n                ((block.timestamp - tokenIdToTimeStamp[tokenIds[i]]) *\n                    presidentEmissions);\n\n            removeTokenIdFromStaker(msg.sender, tokenIds[i]);\n\n            tokenIdToStaker[tokenIds[i]] = nullAddress;\n            \n            _mint(msg.sender, totalRewards);\n        }\n\n        \n    }\n\n    function claimByTokenId(uint256 tokenId) public {\n        require(\n            tokenIdToStaker[tokenId] == msg.sender,\n            \"Token is not claimable by you!\"\n        );\n        require(block.timestamp < CLAIM_END_TIME, \"Claim period is over!\");\n        \n        uint256 presidentEmissions = 0;\n        \n        if (tokenId <= 10000) {\n                presidentEmissions = EMISSIONS_RATE;\n            } else if (tokenId > 10000 && tokenId <= 15000) {\n                presidentEmissions = EMISSIONS_RATE * 5;\n            } else if (tokenId > 15000 && tokenId <= 17500) {\n                presidentEmissions = EMISSIONS_RATE * 10;\n            } else if (tokenId > 17500 && tokenId <= 18000) {\n                presidentEmissions = EMISSIONS_RATE * 20;\n            } else if (tokenId > 18000 && tokenId <= 19000) {\n                presidentEmissions = EMISSIONS_RATE * 50;\n            } else if (tokenId > 19000 && tokenId <= 20000) {\n                presidentEmissions = EMISSIONS_RATE * 100;\n            }\n\n        _mint(\n            msg.sender,\n            ((block.timestamp - tokenIdToTimeStamp[tokenId]) * presidentEmissions)\n        );\n\n        tokenIdToTimeStamp[tokenId] = block.timestamp;\n    }\n\n    function claimAll() public {\n        require(block.timestamp < CLAIM_END_TIME, \"Claim period is over!\");\n        uint256[] memory tokenIds = stakerToTokenIds[msg.sender];\n        uint256 totalRewards = 0;\n        uint256 presidentEmissions = 0;\n\n        for (uint256 i = 0; i < tokenIds.length; i++) {\n            require(\n                tokenIdToStaker[tokenIds[i]] == msg.sender,\n                \"Token is not claimable by you!\"\n            );\n            \n            if (tokenIds[i] <= 10000) {\n                presidentEmissions = EMISSIONS_RATE;\n            } else if (tokenIds[i] > 10000 && tokenIds[i] <= 15000) {\n                presidentEmissions = EMISSIONS_RATE * 5;\n            } else if (tokenIds[i] > 15000 && tokenIds[i] <= 17500) {\n                presidentEmissions = EMISSIONS_RATE * 10;\n            } else if (tokenIds[i] > 17500 && tokenIds[i] <= 18000) {\n                presidentEmissions = EMISSIONS_RATE * 20;\n            } else if (tokenIds[i] > 18000 && tokenIds[i] <= 19000) {\n                presidentEmissions = EMISSIONS_RATE * 50;\n            } else if (tokenIds[i] > 19000 && tokenIds[i] <= 20000) {\n                presidentEmissions = EMISSIONS_RATE * 100;\n            }\n\n            totalRewards =\n                totalRewards +\n                ((block.timestamp - tokenIdToTimeStamp[tokenIds[i]]) *\n                    presidentEmissions);\n\n            tokenIdToTimeStamp[tokenIds[i]] = block.timestamp;\n        }\n\n        _mint(msg.sender, totalRewards);\n    }\n\n    function getAllRewards(address staker) public view returns (uint256) {\n        uint256[] memory tokenIds = stakerToTokenIds[staker];\n        uint256 totalRewards = 0;\n        uint256 presidentEmissions = 0;\n\n        for (uint256 i = 0; i < tokenIds.length; i++) {\n            \n            if (tokenIds[i] <= 10000) {\n                presidentEmissions = EMISSIONS_RATE;\n            } else if (tokenIds[i] > 10000 && tokenIds[i] <= 15000) {\n                presidentEmissions = EMISSIONS_RATE * 5;\n            } else if (tokenIds[i] > 15000 && tokenIds[i] <= 17500) {\n                presidentEmissions = EMISSIONS_RATE * 10;\n            } else if (tokenIds[i] > 17500 && tokenIds[i] <= 18000) {\n                presidentEmissions = EMISSIONS_RATE * 20;\n            } else if (tokenIds[i] > 18000 && tokenIds[i] <= 19000) {\n                presidentEmissions = EMISSIONS_RATE * 50;\n            } else if (tokenIds[i] > 19000 && tokenIds[i] <= 20000) {\n                presidentEmissions = EMISSIONS_RATE * 100;\n            }\n            \n            totalRewards =\n                totalRewards +\n                ((block.timestamp - tokenIdToTimeStamp[tokenIds[i]]) *\n                    presidentEmissions);\n        }\n\n        return totalRewards;\n    }\n\n    function getRewardsByTokenId(uint256 tokenId)\n        public\n        view\n        returns (uint256)\n    {\n        require(\n            tokenIdToStaker[tokenId] != nullAddress,\n            \"Token is not staked!\"\n        );\n        \n        uint256 presidentRewards = 0;\n        \n        if (tokenId <= 10000) {\n                presidentRewards = EMISSIONS_RATE;\n            } else if (tokenId > 10000 && tokenId <= 15000) {\n                presidentRewards = EMISSIONS_RATE * 5;\n            } else if (tokenId > 15000 && tokenId <= 17500) {\n                presidentRewards = EMISSIONS_RATE * 10;\n            } else if (tokenId > 17500 && tokenId <= 18000) {\n                presidentRewards = EMISSIONS_RATE * 20;\n            } else if (tokenId > 18000 && tokenId <= 19000) {\n                presidentRewards = EMISSIONS_RATE * 50;\n            } else if (tokenId > 19000 && tokenId <= 20000) {\n                presidentRewards = EMISSIONS_RATE * 100;\n            }\n\n        uint256 secondsStaked = block.timestamp - tokenIdToTimeStamp[tokenId];\n\n        return secondsStaked * presidentRewards;\n    }\n\n    function getStaker(uint256 tokenId) public view returns (address) {\n        return tokenIdToStaker[tokenId];\n    }\n}",
  "sourcePath": "/Users/melanykurten/Documents/washlocker/contracts/SmartContract.sol",
  "compiler": {
    "name": "solc",
    "version": "0.8.4+commit.c7e474f2.Emscripten.clang"
  },
  "schemaVersion": "3.4.0",
  "updatedAt": "2021-09-24T19:05:07.463Z",
  "devdoc": {
    "kind": "dev",
    "methods": {
      "allowance(address,address)": {
        "details": "See {IERC20-allowance}."
      },
      "approve(address,uint256)": {
        "details": "See {IERC20-approve}. Requirements: - `spender` cannot be the zero address."
      },
      "balanceOf(address)": {
        "details": "See {IERC20-balanceOf}."
      },
      "burn(uint256)": {
        "details": "Destroys `amount` tokens from the caller. See {ERC20-_burn}."
      },
      "burnFrom(address,uint256)": {
        "details": "Destroys `amount` tokens from `account`, deducting from the caller's allowance. See {ERC20-_burn} and {ERC20-allowance}. Requirements: - the caller must have allowance for ``accounts``'s tokens of at least `amount`."
      },
      "decimals()": {
        "details": "Returns the number of decimals used to get its user representation. For example, if `decimals` equals `2`, a balance of `505` tokens should be displayed to a user as `5.05` (`505 / 10 ** 2`). Tokens usually opt for a value of 18, imitating the relationship between Ether and Wei. This is the value {ERC20} uses, unless this function is overridden; NOTE: This information is only used for _display_ purposes: it in no way affects any of the arithmetic of the contract, including {IERC20-balanceOf} and {IERC20-transfer}."
      },
      "decreaseAllowance(address,uint256)": {
        "details": "Atomically decreases the allowance granted to `spender` by the caller. This is an alternative to {approve} that can be used as a mitigation for problems described in {IERC20-approve}. Emits an {Approval} event indicating the updated allowance. Requirements: - `spender` cannot be the zero address. - `spender` must have allowance for the caller of at least `subtractedValue`."
      },
      "increaseAllowance(address,uint256)": {
        "details": "Atomically increases the allowance granted to `spender` by the caller. This is an alternative to {approve} that can be used as a mitigation for problems described in {IERC20-approve}. Emits an {Approval} event indicating the updated allowance. Requirements: - `spender` cannot be the zero address."
      },
      "name()": {
        "details": "Returns the name of the token."
      },
      "owner()": {
        "details": "Returns the address of the current owner."
      },
      "renounceOwnership()": {
        "details": "Leaves the contract without owner. It will not be possible to call `onlyOwner` functions anymore. Can only be called by the current owner. NOTE: Renouncing ownership will leave the contract without an owner, thereby removing any functionality that is only available to the owner."
      },
      "symbol()": {
        "details": "Returns the symbol of the token, usually a shorter version of the name."
      },
      "totalSupply()": {
        "details": "See {IERC20-totalSupply}."
      },
      "transfer(address,uint256)": {
        "details": "See {IERC20-transfer}. Requirements: - `recipient` cannot be the zero address. - the caller must have a balance of at least `amount`."
      },
      "transferFrom(address,address,uint256)": {
        "details": "See {IERC20-transferFrom}. Emits an {Approval} event indicating the updated allowance. This is not required by the EIP. See the note at the beginning of {ERC20}. Requirements: - `sender` and `recipient` cannot be the zero address. - `sender` must have a balance of at least `amount`. - the caller must have allowance for ``sender``'s tokens of at least `amount`."
      },
      "transferOwnership(address)": {
        "details": "Transfers ownership of the contract to a new account (`newOwner`). Can only be called by the current owner."
      }
    },
    "version": 1
  },
  "userdoc": {
    "kind": "user",
    "methods": {},
    "version": 1
  }
}