{
  "contractName": "DollarArtNFT",
  "abi": [
    {
      "inputs": [],
      "stateMutability": "nonpayable",
      "type": "constructor"
    },
    {
      "anonymous": false,
      "inputs": [
        {
          "indexed": true,
          "internalType": "address",
          "name": "owner",
          "type": "address"
        },
        {
          "indexed": true,
          "internalType": "address",
          "name": "approved",
          "type": "address"
        },
        {
          "indexed": true,
          "internalType": "uint256",
          "name": "tokenId",
          "type": "uint256"
        }
      ],
      "name": "Approval",
      "type": "event"
    },
    {
      "anonymous": false,
      "inputs": [
        {
          "indexed": true,
          "internalType": "address",
          "name": "owner",
          "type": "address"
        },
        {
          "indexed": true,
          "internalType": "address",
          "name": "operator",
          "type": "address"
        },
        {
          "indexed": false,
          "internalType": "bool",
          "name": "approved",
          "type": "bool"
        }
      ],
      "name": "ApprovalForAll",
      "type": "event"
    },
    {
      "anonymous": false,
      "inputs": [
        {
          "indexed": true,
          "internalType": "address",
          "name": "previousOwner",
          "type": "address"
        },
        {
          "indexed": true,
          "internalType": "address",
          "name": "newOwner",
          "type": "address"
        }
      ],
      "name": "OwnershipTransferred",
      "type": "event"
    },
    {
      "anonymous": false,
      "inputs": [
        {
          "indexed": true,
          "internalType": "address",
          "name": "from",
          "type": "address"
        },
        {
          "indexed": true,
          "internalType": "address",
          "name": "to",
          "type": "address"
        },
        {
          "indexed": true,
          "internalType": "uint256",
          "name": "tokenId",
          "type": "uint256"
        }
      ],
      "name": "Transfer",
      "type": "event"
    },
    {
      "inputs": [
        {
          "internalType": "address",
          "name": "to",
          "type": "address"
        },
        {
          "internalType": "uint256",
          "name": "tokenId",
          "type": "uint256"
        }
      ],
      "name": "approve",
      "outputs": [],
      "stateMutability": "nonpayable",
      "type": "function"
    },
    {
      "inputs": [],
      "name": "arthouse",
      "outputs": [
        {
          "internalType": "address",
          "name": "",
          "type": "address"
        }
      ],
      "stateMutability": "view",
      "type": "function"
    },
    {
      "inputs": [],
      "name": "availableTokenCount",
      "outputs": [
        {
          "internalType": "uint256",
          "name": "",
          "type": "uint256"
        }
      ],
      "stateMutability": "view",
      "type": "function"
    },
    {
      "inputs": [
        {
          "internalType": "address",
          "name": "owner",
          "type": "address"
        }
      ],
      "name": "balanceOf",
      "outputs": [
        {
          "internalType": "uint256",
          "name": "",
          "type": "uint256"
        }
      ],
      "stateMutability": "view",
      "type": "function"
    },
    {
      "inputs": [],
      "name": "baseURI",
      "outputs": [
        {
          "internalType": "string",
          "name": "",
          "type": "string"
        }
      ],
      "stateMutability": "view",
      "type": "function"
    },
    {
      "inputs": [],
      "name": "cost",
      "outputs": [
        {
          "internalType": "uint256",
          "name": "",
          "type": "uint256"
        }
      ],
      "stateMutability": "view",
      "type": "function"
    },
    {
      "inputs": [],
      "name": "currentSupply",
      "outputs": [
        {
          "internalType": "uint256",
          "name": "",
          "type": "uint256"
        }
      ],
      "stateMutability": "view",
      "type": "function"
    },
    {
      "inputs": [
        {
          "internalType": "uint256",
          "name": "tokenId",
          "type": "uint256"
        }
      ],
      "name": "getApproved",
      "outputs": [
        {
          "internalType": "address",
          "name": "",
          "type": "address"
        }
      ],
      "stateMutability": "view",
      "type": "function"
    },
    {
      "inputs": [
        {
          "internalType": "address",
          "name": "owner",
          "type": "address"
        },
        {
          "internalType": "address",
          "name": "operator",
          "type": "address"
        }
      ],
      "name": "isApprovedForAll",
      "outputs": [
        {
          "internalType": "bool",
          "name": "",
          "type": "bool"
        }
      ],
      "stateMutability": "view",
      "type": "function"
    },
    {
      "inputs": [],
      "name": "maxMintAmountPerCall",
      "outputs": [
        {
          "internalType": "uint256",
          "name": "",
          "type": "uint256"
        }
      ],
      "stateMutability": "view",
      "type": "function"
    },
    {
      "inputs": [],
      "name": "maxSupply",
      "outputs": [
        {
          "internalType": "uint256",
          "name": "",
          "type": "uint256"
        }
      ],
      "stateMutability": "view",
      "type": "function"
    },
    {
      "inputs": [],
      "name": "name",
      "outputs": [
        {
          "internalType": "string",
          "name": "",
          "type": "string"
        }
      ],
      "stateMutability": "view",
      "type": "function"
    },
    {
      "inputs": [],
      "name": "owner",
      "outputs": [
        {
          "internalType": "address",
          "name": "",
          "type": "address"
        }
      ],
      "stateMutability": "view",
      "type": "function"
    },
    {
      "inputs": [
        {
          "internalType": "uint256",
          "name": "tokenId",
          "type": "uint256"
        }
      ],
      "name": "ownerOf",
      "outputs": [
        {
          "internalType": "address",
          "name": "",
          "type": "address"
        }
      ],
      "stateMutability": "view",
      "type": "function"
    },
    {
      "inputs": [],
      "name": "paused",
      "outputs": [
        {
          "internalType": "bool",
          "name": "",
          "type": "bool"
        }
      ],
      "stateMutability": "view",
      "type": "function"
    },
    {
      "inputs": [],
      "name": "renounceOwnership",
      "outputs": [],
      "stateMutability": "nonpayable",
      "type": "function"
    },
    {
      "inputs": [
        {
          "internalType": "address",
          "name": "from",
          "type": "address"
        },
        {
          "internalType": "address",
          "name": "to",
          "type": "address"
        },
        {
          "internalType": "uint256",
          "name": "tokenId",
          "type": "uint256"
        }
      ],
      "name": "safeTransferFrom",
      "outputs": [],
      "stateMutability": "nonpayable",
      "type": "function"
    },
    {
      "inputs": [
        {
          "internalType": "address",
          "name": "from",
          "type": "address"
        },
        {
          "internalType": "address",
          "name": "to",
          "type": "address"
        },
        {
          "internalType": "uint256",
          "name": "tokenId",
          "type": "uint256"
        },
        {
          "internalType": "bytes",
          "name": "_data",
          "type": "bytes"
        }
      ],
      "name": "safeTransferFrom",
      "outputs": [],
      "stateMutability": "nonpayable",
      "type": "function"
    },
    {
      "inputs": [
        {
          "internalType": "address",
          "name": "operator",
          "type": "address"
        },
        {
          "internalType": "bool",
          "name": "approved",
          "type": "bool"
        }
      ],
      "name": "setApprovalForAll",
      "outputs": [],
      "stateMutability": "nonpayable",
      "type": "function"
    },
    {
      "inputs": [
        {
          "internalType": "bytes4",
          "name": "interfaceId",
          "type": "bytes4"
        }
      ],
      "name": "supportsInterface",
      "outputs": [
        {
          "internalType": "bool",
          "name": "",
          "type": "bool"
        }
      ],
      "stateMutability": "view",
      "type": "function"
    },
    {
      "inputs": [],
      "name": "symbol",
      "outputs": [
        {
          "internalType": "string",
          "name": "",
          "type": "string"
        }
      ],
      "stateMutability": "view",
      "type": "function"
    },
    {
      "inputs": [],
      "name": "tokenCount",
      "outputs": [
        {
          "internalType": "uint256",
          "name": "",
          "type": "uint256"
        }
      ],
      "stateMutability": "view",
      "type": "function"
    },
    {
      "inputs": [],
      "name": "totalSupply",
      "outputs": [
        {
          "internalType": "uint256",
          "name": "",
          "type": "uint256"
        }
      ],
      "stateMutability": "view",
      "type": "function"
    },
    {
      "inputs": [
        {
          "internalType": "address",
          "name": "from",
          "type": "address"
        },
        {
          "internalType": "address",
          "name": "to",
          "type": "address"
        },
        {
          "internalType": "uint256",
          "name": "tokenId",
          "type": "uint256"
        }
      ],
      "name": "transferFrom",
      "outputs": [],
      "stateMutability": "nonpayable",
      "type": "function"
    },
    {
      "inputs": [
        {
          "internalType": "address",
          "name": "newOwner",
          "type": "address"
        }
      ],
      "name": "transferOwnership",
      "outputs": [],
      "stateMutability": "nonpayable",
      "type": "function"
    },
    {
      "inputs": [
        {
          "internalType": "address",
          "name": "_to",
          "type": "address"
        },
        {
          "internalType": "uint256",
          "name": "_amount",
          "type": "uint256"
        }
      ],
      "name": "mint",
      "outputs": [],
      "stateMutability": "payable",
      "type": "function"
    },
    {
      "inputs": [
        {
          "internalType": "uint256",
          "name": "tokenId",
          "type": "uint256"
        }
      ],
      "name": "tokenURI",
      "outputs": [
        {
          "internalType": "string",
          "name": "",
          "type": "string"
        }
      ],
      "stateMutability": "view",
      "type": "function"
    },
    {
      "inputs": [
        {
          "internalType": "bool",
          "name": "_state",
          "type": "bool"
        }
      ],
      "name": "pauseMint",
      "outputs": [],
      "stateMutability": "nonpayable",
      "type": "function"
    },
    {
      "inputs": [
        {
          "internalType": "string",
          "name": "_newBaseURI",
          "type": "string"
        }
      ],
      "name": "setBaseURI",
      "outputs": [],
      "stateMutability": "nonpayable",
      "type": "function"
    },
    {
      "inputs": [],
      "name": "withdraw",
      "outputs": [],
      "stateMutability": "payable",
      "type": "function"
    }
  ],
  "bytecode": "0x600b80546001600160a01b0319167397843608a00e2bbc75ab0c1911387e002565dede17905560c0604052601560808190527f68747470733a2f2f697066732e696f2f697066732f000000000000000000000060a09081526200006691600c919062000a9c565b5060408051808201909152600580825264173539b7b760d91b60209092019182526200009591600d9162000a9c565b506000600e55600f805460ff19169055348015620000b257600080fd5b50604080518082018252600c81526b111bdb1b185c905c9d13919560a21b6020808301918252835180850190945260048452631110549560e21b90840152815161271093600193859390926200010b9160009162000a9c565b5080516200012190600190602084019062000a9c565b5050506200013e620001386200015860201b60201c565b6200015c565b600855600a555062000152336031620001ae565b62000cd5565b3390565b600680546001600160a01b038381166001600160a01b0319831681179093556040519116919082907f8be0079c531659141344cd1fd0a4f28419497f9722a3daafe3b4186f6b6457e090600090a35050565b60008111620002045760405162461bcd60e51b815260206004820152601560248201527f4d555354204d494e54204d4f5245205448414e2030000000000000000000000060448201526064015b60405180910390fd5b600f5460ff1615620002595760405162461bcd60e51b815260206004820152601960248201527f434f4e54524143542043414e4e4f5420424520504155534544000000000000006044820152606401620001fb565b6064811115620002ac5760405162461bcd60e51b815260206004820152601f60248201527f594f552043414e2754204d494e5420534f204d414e59205045522043414c4c006044820152606401620001fb565b61271081600e54620002bf919062000bec565b11156200031f5760405162461bcd60e51b815260206004820152602760248201527f594f552043414e2754204d494e54204d4f5245205448414e204d4158494d554d60448201526620535550504c5960c81b6064820152608401620001fb565b6000816200032c620004c2565b62000338919062000c29565b116200039d5760405162461bcd60e51b815260206004820152602d60248201527f594f552043414e2754204d494e54204d4f5245205448414e204156414c41424c60448201526c11481513d2d1538810d3d55395609a1b6064820152608401620001fb565b6006546001600160a01b031633146200046a57620003c381662386f26fc1000062000c07565b341015620003d057600080fd5b600b546040516000916001600160a01b03169083908381818185875af1925050503d80600081146200041f576040519150601f19603f3d011682016040523d82523d6000602084013e62000424565b606091505b5050905080620004685760405162461bcd60e51b815260206004820152600e60248201526d18dbdd5b19081b9bdd081cd95b9960921b6044820152606401620001fb565b505b60015b818111620004bd57600062000481620004e2565b90506200048f848262000698565b600e8054906000620004a18362000c80565b9190505550508080620004b49062000c80565b9150506200046d565b505050565b6000620004ce620006be565b600854620004dd919062000c29565b905090565b600080620004ef620004c2565b116200053e5760405162461bcd60e51b815260206004820152601860248201527f4e6f206d6f726520746f6b656e7320617661696c61626c6500000000000000006044820152606401620001fb565b60006200054a620006be565b60085462000559919062000c29565b6040516001600160601b031933606090811b8216602084015241901b166034820152446048820152456068820152426088820152909150600090829060a8016040516020818303038152906040528051906020012060001c620005bd919062000c9e565b60008181526009602052604081205491925090620005dd575080620005ee565b506000818152600960205260409020545b60096000620005ff60018662000c29565b8152602001908152602001600020546000141562000639576200062460018462000c29565b6000838152600960205260409020556200066b565b600960006200064a60018662000c29565b81526020808201929092526040908101600090812054858252600990935220555b62000680620006d760201b620010621760201c565b50600a5462000690908262000bec565b935050505090565b620006ba8282604051806020016040528060008152506200076560201b60201c565b5050565b6000620004dd6007620007d860201b620010d01760201c565b600080620006e4620004c2565b11620007335760405162461bcd60e51b815260206004820152601860248201527f4e6f206d6f726520746f6b656e7320617661696c61626c6500000000000000006044820152606401620001fb565b60006200074c6007620007d860201b620010d01760201c565b9050620004dd6007620007dc60201b620010d41760201c565b620007718383620007e5565b6200078060008484846200092d565b620004bd5760405162461bcd60e51b8152602060048201526032602482015260008051602062002d8383398151915260448201527131b2b4bb32b91034b6b83632b6b2b73a32b960711b6064820152608401620001fb565b5490565b80546001019055565b6001600160a01b0382166200083d5760405162461bcd60e51b815260206004820181905260248201527f4552433732313a206d696e7420746f20746865207a65726f20616464726573736044820152606401620001fb565b6000818152600260205260409020546001600160a01b031615620008a45760405162461bcd60e51b815260206004820152601c60248201527f4552433732313a20746f6b656e20616c7265616479206d696e746564000000006044820152606401620001fb565b6001600160a01b0382166000908152600360205260408120805460019290620008cf90849062000bec565b909155505060008181526002602052604080822080546001600160a01b0319166001600160a01b03861690811790915590518392907fddf252ad1be2c89b69c2b068fc378daa952ba7f163c4a11628f55a4df523b3ef908290a45050565b60006200094e846001600160a01b031662000a9660201b620010dd1760201c565b1562000a8a57604051630a85bd0160e11b81526001600160a01b0385169063150b7a02906200098890339089908890889060040162000b73565b602060405180830381600087803b158015620009a357600080fd5b505af1925050508015620009d6575060408051601f3d908101601f19168201909252620009d39181019062000b42565b60015b62000a6f573d80801562000a07576040519150601f19603f3d011682016040523d82523d6000602084013e62000a0c565b606091505b50805162000a675760405162461bcd60e51b8152602060048201526032602482015260008051602062002d8383398151915260448201527131b2b4bb32b91034b6b83632b6b2b73a32b960711b6064820152608401620001fb565b805181602001fd5b6001600160e01b031916630a85bd0160e11b14905062000a8e565b5060015b949350505050565b3b151590565b82805462000aaa9062000c43565b90600052602060002090601f01602090048101928262000ace576000855562000b19565b82601f1062000ae957805160ff191683800117855562000b19565b8280016001018555821562000b19579182015b8281111562000b1957825182559160200191906001019062000afc565b5062000b2792915062000b2b565b5090565b5b8082111562000b27576000815560010162000b2c565b60006020828403121562000b54578081fd5b81516001600160e01b03198116811462000b6c578182fd5b9392505050565b600060018060a01b0380871683526020818716818501528560408501526080606085015284519150816080850152825b8281101562000bc15785810182015185820160a00152810162000ba3565b8281111562000bd3578360a084870101525b5050601f01601f19169190910160a00195945050505050565b6000821982111562000c025762000c0262000cbf565b500190565b600081600019048311821515161562000c245762000c2462000cbf565b500290565b60008282101562000c3e5762000c3e62000cbf565b500390565b600181811c9082168062000c5857607f821691505b6020821081141562000c7a57634e487b7160e01b600052602260045260246000fd5b50919050565b600060001982141562000c975762000c9762000cbf565b5060010190565b60008262000cba57634e487b7160e01b81526012600452602481fd5b500690565b634e487b7160e01b600052601160045260246000fd5b61209e8062000ce56000396000f3fe6080604052600436106101cd5760003560e01c806370a08231116100f7578063b88d4fde11610095578063e14ca35311610064578063e14ca353146104c9578063e985e9c5146104de578063f2fde38b14610527578063f30e6e771461054757600080fd5b8063b88d4fde14610453578063bf4e6dd914610473578063c87b56dd14610493578063d5abeb01146104b357600080fd5b80638da5cb5b116100d15780638da5cb5b146103eb57806395d89b41146104095780639f181b5e1461041e578063a22cb4651461043357600080fd5b806370a08231146103a0578063715018a6146103c0578063771282f6146103d557600080fd5b80633ccfd60b1161016f5780635c975abb1161013e5780635c975abb1461033c5780635ef2ff9f146103565780636352211e1461036b5780636c0360eb1461038b57600080fd5b80633ccfd60b146102e157806340c10f19146102e957806342842e0e146102fc57806355f804b31461031c57600080fd5b8063095ea7b3116101ab578063095ea7b31461026157806313faede61461028357806318160ddd146102ac57806323b872dd146102c157600080fd5b806301ffc9a7146101d257806306fdde0314610207578063081812fc14610229575b600080fd5b3480156101de57600080fd5b506101f26101ed366004611c6c565b610567565b60405190151581526020015b60405180910390f35b34801561021357600080fd5b5061021c6105b9565b6040516101fe9190611e2d565b34801561023557600080fd5b50610249610244366004611cea565b61064b565b6040516001600160a01b0390911681526020016101fe565b34801561026d57600080fd5b5061028161027c366004611c29565b6106e5565b005b34801561028f57600080fd5b5061029e662386f26fc1000081565b6040519081526020016101fe565b3480156102b857600080fd5b5060085461029e565b3480156102cd57600080fd5b506102816102dc366004611b4c565b6107fb565b61028161082c565b6102816102f7366004611c29565b61087c565b34801561030857600080fd5b50610281610317366004611b4c565b610b5d565b34801561032857600080fd5b50610281610337366004611ca4565b610b78565b34801561034857600080fd5b50600f546101f29060ff1681565b34801561036257600080fd5b5061029e606481565b34801561037757600080fd5b50610249610386366004611cea565b610bb9565b34801561039757600080fd5b5061021c610c30565b3480156103ac57600080fd5b5061029e6103bb366004611b00565b610cbe565b3480156103cc57600080fd5b50610281610d45565b3480156103e157600080fd5b5061029e600e5481565b3480156103f757600080fd5b506006546001600160a01b0316610249565b34801561041557600080fd5b5061021c610d79565b34801561042a57600080fd5b5061029e610d88565b34801561043f57600080fd5b5061028161044e366004611c00565b610d98565b34801561045f57600080fd5b5061028161046e366004611b87565b610e5d565b34801561047f57600080fd5b50600b54610249906001600160a01b031681565b34801561049f57600080fd5b5061021c6104ae366004611cea565b610e95565b3480156104bf57600080fd5b5061029e61271081565b3480156104d557600080fd5b5061029e610f73565b3480156104ea57600080fd5b506101f26104f9366004611b1a565b6001600160a01b03918216600090815260056020908152604080832093909416825291909152205460ff1690565b34801561053357600080fd5b50610281610542366004611b00565b610f8a565b34801561055357600080fd5b50610281610562366004611c52565b611025565b60006001600160e01b031982166380ac58cd60e01b148061059857506001600160e01b03198216635b5e139f60e01b145b806105b357506301ffc9a760e01b6001600160e01b03198316145b92915050565b6060600080546105c890611fa6565b80601f01602080910402602001604051908101604052809291908181526020018280546105f490611fa6565b80156106415780601f1061061657610100808354040283529160200191610641565b820191906000526020600020905b81548152906001019060200180831161062457829003601f168201915b5050505050905090565b6000818152600260205260408120546001600160a01b03166106c95760405162461bcd60e51b815260206004820152602c60248201527f4552433732313a20617070726f76656420717565727920666f72206e6f6e657860448201526b34b9ba32b73a103a37b5b2b760a11b60648201526084015b60405180910390fd5b506000908152600460205260409020546001600160a01b031690565b60006106f082610bb9565b9050806001600160a01b0316836001600160a01b0316141561075e5760405162461bcd60e51b815260206004820152602160248201527f4552433732313a20617070726f76616c20746f2063757272656e74206f776e656044820152603960f91b60648201526084016106c0565b336001600160a01b038216148061077a575061077a81336104f9565b6107ec5760405162461bcd60e51b815260206004820152603860248201527f4552433732313a20617070726f76652063616c6c6572206973206e6f74206f7760448201527f6e6572206e6f7220617070726f76656420666f7220616c6c000000000000000060648201526084016106c0565b6107f683836110e3565b505050565b6108053382611151565b6108215760405162461bcd60e51b81526004016106c090611ec7565b6107f6838383611248565b6006546001600160a01b031633146108565760405162461bcd60e51b81526004016106c090611e92565b60405133904780156108fc02916000818181858888f1935050505061087a57600080fd5b565b600081116108c45760405162461bcd60e51b815260206004820152601560248201527404d555354204d494e54204d4f5245205448414e203605c1b60448201526064016106c0565b600f5460ff16156109175760405162461bcd60e51b815260206004820152601960248201527f434f4e54524143542043414e4e4f54204245205041555345440000000000000060448201526064016106c0565b60648111156109685760405162461bcd60e51b815260206004820152601f60248201527f594f552043414e2754204d494e5420534f204d414e59205045522043414c4c0060448201526064016106c0565b61271081600e546109799190611f18565b11156109d75760405162461bcd60e51b815260206004820152602760248201527f594f552043414e2754204d494e54204d4f5245205448414e204d4158494d554d60448201526620535550504c5960c81b60648201526084016106c0565b6000816109e2610f73565b6109ec9190611f63565b11610a4f5760405162461bcd60e51b815260206004820152602d60248201527f594f552043414e2754204d494e54204d4f5245205448414e204156414c41424c60448201526c11481513d2d1538810d3d55395609a1b60648201526084016106c0565b6006546001600160a01b03163314610b1457610a7281662386f26fc10000611f44565b341015610a7e57600080fd5b600b546040516000916001600160a01b03169083908381818185875af1925050503d8060008114610acb576040519150601f19603f3d011682016040523d82523d6000602084013e610ad0565b606091505b5050905080610b125760405162461bcd60e51b815260206004820152600e60248201526d18dbdd5b19081b9bdd081cd95b9960921b60448201526064016106c0565b505b60015b8181116107f6576000610b286113e8565b9050610b34848261157b565b600e8054906000610b4483611fe1565b9190505550508080610b5590611fe1565b915050610b17565b6107f683838360405180602001604052806000815250610e5d565b6006546001600160a01b03163314610ba25760405162461bcd60e51b81526004016106c090611e92565b8051610bb590600c9060208401906119c5565b5050565b6000818152600260205260408120546001600160a01b0316806105b35760405162461bcd60e51b815260206004820152602960248201527f4552433732313a206f776e657220717565727920666f72206e6f6e657869737460448201526832b73a103a37b5b2b760b91b60648201526084016106c0565b600c8054610c3d90611fa6565b80601f0160208091040260200160405190810160405280929190818152602001828054610c6990611fa6565b8015610cb65780601f10610c8b57610100808354040283529160200191610cb6565b820191906000526020600020905b815481529060010190602001808311610c9957829003601f168201915b505050505081565b60006001600160a01b038216610d295760405162461bcd60e51b815260206004820152602a60248201527f4552433732313a2062616c616e636520717565727920666f7220746865207a65604482015269726f206164647265737360b01b60648201526084016106c0565b506001600160a01b031660009081526003602052604090205490565b6006546001600160a01b03163314610d6f5760405162461bcd60e51b81526004016106c090611e92565b61087a6000611595565b6060600180546105c890611fa6565b6000610d9360075490565b905090565b6001600160a01b038216331415610df15760405162461bcd60e51b815260206004820152601960248201527f4552433732313a20617070726f766520746f2063616c6c65720000000000000060448201526064016106c0565b3360008181526005602090815260408083206001600160a01b03871680855290835292819020805460ff191686151590811790915590519081529192917f17307eab39ab6107e8899845ad3d59bd9653f200f220920489ca2b5937696c31910160405180910390a35050565b610e673383611151565b610e835760405162461bcd60e51b81526004016106c090611ec7565b610e8f848484846115e7565b50505050565b6000818152600260205260409020546060906001600160a01b0316610f145760405162461bcd60e51b815260206004820152602f60248201527f4552433732314d657461646174613a2055524920717565727920666f72206e6f60448201526e3732bc34b9ba30b73a103a37b5b2b760891b60648201526084016106c0565b6000610f1e61161a565b90506000815111610f3e5760405180602001604052806000815250610f6c565b80610f4884611629565b600d604051602001610f5c93929190611d2e565b6040516020818303038152906040525b9392505050565b6000610f7d610d88565b600854610d939190611f63565b6006546001600160a01b03163314610fb45760405162461bcd60e51b81526004016106c090611e92565b6001600160a01b0381166110195760405162461bcd60e51b815260206004820152602660248201527f4f776e61626c653a206e6577206f776e657220697320746865207a65726f206160448201526564647265737360d01b60648201526084016106c0565b61102281611595565b50565b6006546001600160a01b0316331461104f5760405162461bcd60e51b81526004016106c090611e92565b600f805460ff1916911515919091179055565b60008061106d610f73565b116110b55760405162461bcd60e51b81526020600482015260186024820152774e6f206d6f726520746f6b656e7320617661696c61626c6560401b60448201526064016106c0565b60006110c060075490565b9050610d93600780546001019055565b5490565b80546001019055565b3b151590565b600081815260046020526040902080546001600160a01b0319166001600160a01b038416908117909155819061111882610bb9565b6001600160a01b03167f8c5be1e5ebec7d5bd14f71427d1e84f3dd0314c0f7b2291e5b200ac8c7c3b92560405160405180910390a45050565b6000818152600260205260408120546001600160a01b03166111ca5760405162461bcd60e51b815260206004820152602c60248201527f4552433732313a206f70657261746f7220717565727920666f72206e6f6e657860448201526b34b9ba32b73a103a37b5b2b760a11b60648201526084016106c0565b60006111d583610bb9565b9050806001600160a01b0316846001600160a01b031614806112105750836001600160a01b03166112058461064b565b6001600160a01b0316145b8061124057506001600160a01b0380821660009081526005602090815260408083209388168352929052205460ff165b949350505050565b826001600160a01b031661125b82610bb9565b6001600160a01b0316146112c35760405162461bcd60e51b815260206004820152602960248201527f4552433732313a207472616e73666572206f6620746f6b656e2074686174206960448201526839903737ba1037bbb760b91b60648201526084016106c0565b6001600160a01b0382166113255760405162461bcd60e51b8152602060048201526024808201527f4552433732313a207472616e7366657220746f20746865207a65726f206164646044820152637265737360e01b60648201526084016106c0565b6113306000826110e3565b6001600160a01b0383166000908152600360205260408120805460019290611359908490611f63565b90915550506001600160a01b0382166000908152600360205260408120805460019290611387908490611f18565b909155505060008181526002602052604080822080546001600160a01b0319166001600160a01b0386811691821790925591518493918716917fddf252ad1be2c89b69c2b068fc378daa952ba7f163c4a11628f55a4df523b3ef91a4505050565b6000806113f3610f73565b1161143b5760405162461bcd60e51b81526020600482015260186024820152774e6f206d6f726520746f6b656e7320617661696c61626c6560401b60448201526064016106c0565b6000611445610d88565b6008546114529190611f63565b6040516bffffffffffffffffffffffff1933606090811b8216602084015241901b166034820152446048820152456068820152426088820152909150600090829060a8016040516020818303038152906040528051906020012060001c6114b99190611ffc565b600081815260096020526040812054919250906114d75750806114e8565b506000818152600960205260409020545b600960006114f7600186611f63565b8152602001908152602001600020546000141561152d57611519600184611f63565b60008381526009602052604090205561155d565b6009600061153c600186611f63565b81526020808201929092526040908101600090812054858252600990935220555b611565611062565b50600a546115739082611f18565b935050505090565b610bb5828260405180602001604052806000815250611743565b600680546001600160a01b038381166001600160a01b0319831681179093556040519116919082907f8be0079c531659141344cd1fd0a4f28419497f9722a3daafe3b4186f6b6457e090600090a35050565b6115f2848484611248565b6115fe84848484611776565b610e8f5760405162461bcd60e51b81526004016106c090611e40565b6060600c80546105c890611fa6565b60608161164d5750506040805180820190915260018152600360fc1b602082015290565b8160005b8115611677578061166181611fe1565b91506116709050600a83611f30565b9150611651565b60008167ffffffffffffffff8111156116a057634e487b7160e01b600052604160045260246000fd5b6040519080825280601f01601f1916602001820160405280156116ca576020820181803683370190505b5090505b8415611240576116df600183611f63565b91506116ec600a86611ffc565b6116f7906030611f18565b60f81b81838151811061171a57634e487b7160e01b600052603260045260246000fd5b60200101906001600160f81b031916908160001a90535061173c600a86611f30565b94506116ce565b61174d8383611883565b61175a6000848484611776565b6107f65760405162461bcd60e51b81526004016106c090611e40565b60006001600160a01b0384163b1561187857604051630a85bd0160e11b81526001600160a01b0385169063150b7a02906117ba903390899088908890600401611df0565b602060405180830381600087803b1580156117d457600080fd5b505af1925050508015611804575060408051601f3d908101601f1916820190925261180191810190611c88565b60015b61185e573d808015611832576040519150601f19603f3d011682016040523d82523d6000602084013e611837565b606091505b5080516118565760405162461bcd60e51b81526004016106c090611e40565b805181602001fd5b6001600160e01b031916630a85bd0160e11b149050611240565b506001949350505050565b6001600160a01b0382166118d95760405162461bcd60e51b815260206004820181905260248201527f4552433732313a206d696e7420746f20746865207a65726f206164647265737360448201526064016106c0565b6000818152600260205260409020546001600160a01b03161561193e5760405162461bcd60e51b815260206004820152601c60248201527f4552433732313a20746f6b656e20616c7265616479206d696e7465640000000060448201526064016106c0565b6001600160a01b0382166000908152600360205260408120805460019290611967908490611f18565b909155505060008181526002602052604080822080546001600160a01b0319166001600160a01b03861690811790915590518392907fddf252ad1be2c89b69c2b068fc378daa952ba7f163c4a11628f55a4df523b3ef908290a45050565b8280546119d190611fa6565b90600052602060002090601f0160209004810192826119f35760008555611a39565b82601f10611a0c57805160ff1916838001178555611a39565b82800160010185558215611a39579182015b82811115611a39578251825591602001919060010190611a1e565b50611a45929150611a49565b5090565b5b80821115611a455760008155600101611a4a565b600067ffffffffffffffff80841115611a7957611a7961203c565b604051601f8501601f19908116603f01168101908282118183101715611aa157611aa161203c565b81604052809350858152868686011115611aba57600080fd5b858560208301376000602087830101525050509392505050565b80356001600160a01b0381168114611aeb57600080fd5b919050565b80358015158114611aeb57600080fd5b600060208284031215611b11578081fd5b610f6c82611ad4565b60008060408385031215611b2c578081fd5b611b3583611ad4565b9150611b4360208401611ad4565b90509250929050565b600080600060608486031215611b60578081fd5b611b6984611ad4565b9250611b7760208501611ad4565b9150604084013590509250925092565b60008060008060808587031215611b9c578081fd5b611ba585611ad4565b9350611bb360208601611ad4565b925060408501359150606085013567ffffffffffffffff811115611bd5578182fd5b8501601f81018713611be5578182fd5b611bf487823560208401611a5e565b91505092959194509250565b60008060408385031215611c12578182fd5b611c1b83611ad4565b9150611b4360208401611af0565b60008060408385031215611c3b578182fd5b611c4483611ad4565b946020939093013593505050565b600060208284031215611c63578081fd5b610f6c82611af0565b600060208284031215611c7d578081fd5b8135610f6c81612052565b600060208284031215611c99578081fd5b8151610f6c81612052565b600060208284031215611cb5578081fd5b813567ffffffffffffffff811115611ccb578182fd5b8201601f81018413611cdb578182fd5b61124084823560208401611a5e565b600060208284031215611cfb578081fd5b5035919050565b60008151808452611d1a816020860160208601611f7a565b601f01601f19169290920160200192915050565b600084516020611d418285838a01611f7a565b855191840191611d548184848a01611f7a565b85549201918390600181811c9080831680611d7057607f831692505b858310811415611d8e57634e487b7160e01b88526022600452602488fd5b808015611da25760018114611db357611ddf565b60ff19851688528388019550611ddf565b60008b815260209020895b85811015611dd75781548a820152908401908801611dbe565b505083880195505b50939b9a5050505050505050505050565b6001600160a01b0385811682528416602082015260408101839052608060608201819052600090611e2390830184611d02565b9695505050505050565b602081526000610f6c6020830184611d02565b60208082526032908201527f4552433732313a207472616e7366657220746f206e6f6e20455243373231526560408201527131b2b4bb32b91034b6b83632b6b2b73a32b960711b606082015260800190565b6020808252818101527f4f776e61626c653a2063616c6c6572206973206e6f7420746865206f776e6572604082015260600190565b60208082526031908201527f4552433732313a207472616e736665722063616c6c6572206973206e6f74206f6040820152701ddb995c881b9bdc88185c1c1c9bdd9959607a1b606082015260800190565b60008219821115611f2b57611f2b612010565b500190565b600082611f3f57611f3f612026565b500490565b6000816000190483118215151615611f5e57611f5e612010565b500290565b600082821015611f7557611f75612010565b500390565b60005b83811015611f95578181015183820152602001611f7d565b83811115610e8f5750506000910152565b600181811c90821680611fba57607f821691505b60208210811415611fdb57634e487b7160e01b600052602260045260246000fd5b50919050565b6000600019821415611ff557611ff5612010565b5060010190565b60008261200b5761200b612026565b500690565b634e487b7160e01b600052601160045260246000fd5b634e487b7160e01b600052601260045260246000fd5b634e487b7160e01b600052604160045260246000fd5b6001600160e01b03198116811461102257600080fdfea2646970667358221220a1f4a8fcd399c4490e480cd930a3cb6603e5ab7f7a15f00fa48c779f413cf3ec64736f6c634300080400334552433732313a207472616e7366657220746f206e6f6e204552433732315265",
  "immutableReferences": {},
  "source": "pragma solidity ^0.8.0;\n//SPDX-License-Identifier: MIT\n\nimport \"@openzeppelin/contracts/token/ERC721/ERC721.sol\";\nimport \"@openzeppelin/contracts/access/Ownable.sol\";\nimport \"@1001-digital/erc721-extensions/contracts/RandomlyAssigned.sol\";\n\n// WeMint Washington Edition ERC721 \n// WeMint.Cash \n// Calling mint mints a random  Washington until 10,000 have been minted. \n\ncontract DollarArtNFT is ERC721, Ownable, RandomlyAssigned {\n  using Strings for uint256;\n  address public arthouse = 0x97843608a00e2bbc75ab0C1911387E002565DEDE;\n  // uint256 public requested;\n  \n  string public baseURI = \"https://ipfs.io/ipfs/\";\n  string internal baseExtension = \".json\";\n  uint256 public constant cost = 0.01 ether;\n  uint256 public currentSupply = 0;\n  uint256 public constant maxSupply = 10000;\n  uint256 public constant maxMintAmountPerCall = 100;\n  bool public paused = false;\n\n  constructor() \n    ERC721(\"DollarArtNFT\", \"DART\")\n    RandomlyAssigned(10000,1)\n    {\n        mint(msg.sender, 49);\n    }\n\n  function _baseURI() internal view virtual override returns (string memory) {\n    return baseURI;\n  }\n\n  function mint (address _to, uint256 _amount)\n      public\n      payable\n  {\n      require( _amount > 0, \"MUST MINT MORE THAN 0\" );\n      require(!paused, \"CONTRACT CANNOT BE PAUSED\");\n      require( _amount <= maxMintAmountPerCall, \"YOU CAN'T MINT SO MANY PER CALL\");\n      require( currentSupply + _amount <= maxSupply, \"YOU CAN'T MINT MORE THAN MAXIMUM SUPPLY\");\n      require( availableTokenCount() - _amount > 0, \"YOU CAN'T MINT MORE THAN AVALABLE TOKEN COUNT\"); \n\n      if (msg.sender != owner()) {\n        require( msg.value >= cost * _amount);\n        (bool success,) = arthouse.call{value:_amount}(\"\");\n        require( success, \"could not send\");\n      }\n      \n      for (uint256 i = 1; i <= _amount; i++) {\n        uint256 id = nextToken();\n        _safeMint(_to, id);\n        currentSupply++;\n      }      \n  }\n\n  function tokenURI(uint256 tokenId) public view virtual override returns (string memory) {\n    require(\n      _exists(tokenId),\n      \"ERC721Metadata: URI query for nonexistant token\"\n    );\n\n    string memory currentBaseURI = _baseURI();\n    return bytes(currentBaseURI).length > 0\n        ? string(abi.encodePacked(currentBaseURI, tokenId.toString(), baseExtension))\n        : \"\";\n  }\n\n  function pauseMint(bool _state) public onlyOwner {\n    paused = _state;\n  }\n\n  function setBaseURI(string memory _newBaseURI) public onlyOwner {\n    baseURI = _newBaseURI;\n  }\n\n  function withdraw() public payable onlyOwner {\n    require(payable(msg.sender).send(address(this).balance));\n  }\n}",
  "sourcePath": "/Users/melanykurten/Documents/dartfront/contracts/SmartContract.sol",
  "compiler": {
    "name": "solc",
    "version": "0.8.4+commit.c7e474f2.Emscripten.clang"
  },
  "schemaVersion": "3.4.0",
  "updatedAt": "2021-09-08T07:08:16.637Z",
  "devdoc": {
    "kind": "dev",
    "methods": {
      "approve(address,uint256)": {
        "details": "See {IERC721-approve}."
      },
      "availableTokenCount()": {
        "details": "Check whether tokens are still available",
        "returns": {
          "_0": "the available token count"
        }
      },
      "balanceOf(address)": {
        "details": "See {IERC721-balanceOf}."
      },
      "getApproved(uint256)": {
        "details": "See {IERC721-getApproved}."
      },
      "isApprovedForAll(address,address)": {
        "details": "See {IERC721-isApprovedForAll}."
      },
      "name()": {
        "details": "See {IERC721Metadata-name}."
      },
      "owner()": {
        "details": "Returns the address of the current owner."
      },
      "ownerOf(uint256)": {
        "details": "See {IERC721-ownerOf}."
      },
      "renounceOwnership()": {
        "details": "Leaves the contract without owner. It will not be possible to call `onlyOwner` functions anymore. Can only be called by the current owner. NOTE: Renouncing ownership will leave the contract without an owner, thereby removing any functionality that is only available to the owner."
      },
      "safeTransferFrom(address,address,uint256)": {
        "details": "See {IERC721-safeTransferFrom}."
      },
      "safeTransferFrom(address,address,uint256,bytes)": {
        "details": "See {IERC721-safeTransferFrom}."
      },
      "setApprovalForAll(address,bool)": {
        "details": "See {IERC721-setApprovalForAll}."
      },
      "supportsInterface(bytes4)": {
        "details": "See {IERC165-supportsInterface}."
      },
      "symbol()": {
        "details": "See {IERC721Metadata-symbol}."
      },
      "tokenCount()": {
        "details": "Get the current token count",
        "returns": {
          "_0": "the created token count"
        }
      },
      "tokenURI(uint256)": {
        "details": "See {IERC721Metadata-tokenURI}."
      },
      "totalSupply()": {
        "details": "Get the max Supply",
        "returns": {
          "_0": "the maximum token count"
        }
      },
      "transferFrom(address,address,uint256)": {
        "details": "See {IERC721-transferFrom}."
      },
      "transferOwnership(address)": {
        "details": "Transfers ownership of the contract to a new account (`newOwner`). Can only be called by the current owner."
      }
    },
    "version": 1
  },
  "userdoc": {
    "kind": "user",
    "methods": {},
    "version": 1
  }
}